{
  "_format": "hh-sol-artifact-1",
  "contractName": "CarbonMonster",
  "sourceName": "contracts/CarbonMonster.sol",
  "abi": [
    {
      "inputs": [],
      "stateMutability": "nonpayable",
      "type": "constructor"
    },
    {
      "anonymous": false,
      "inputs": [
        {
          "indexed": true,
          "internalType": "address",
          "name": "owner",
          "type": "address"
        },
        {
          "indexed": true,
          "internalType": "address",
          "name": "approved",
          "type": "address"
        },
        {
          "indexed": true,
          "internalType": "uint256",
          "name": "tokenId",
          "type": "uint256"
        }
      ],
      "name": "Approval",
      "type": "event"
    },
    {
      "anonymous": false,
      "inputs": [
        {
          "indexed": true,
          "internalType": "address",
          "name": "owner",
          "type": "address"
        },
        {
          "indexed": true,
          "internalType": "address",
          "name": "operator",
          "type": "address"
        },
        {
          "indexed": false,
          "internalType": "bool",
          "name": "approved",
          "type": "bool"
        }
      ],
      "name": "ApprovalForAll",
      "type": "event"
    },
    {
      "anonymous": false,
      "inputs": [
        {
          "indexed": true,
          "internalType": "address",
          "name": "from",
          "type": "address"
        },
        {
          "indexed": false,
          "internalType": "uint256",
          "name": "id",
          "type": "uint256"
        },
        {
          "indexed": false,
          "internalType": "string",
          "name": "image",
          "type": "string"
        },
        {
          "indexed": false,
          "internalType": "uint256",
          "name": "totalFeededAmount",
          "type": "uint256"
        }
      ],
      "name": "MonsterUpdated",
      "type": "event"
    },
    {
      "anonymous": false,
      "inputs": [
        {
          "indexed": true,
          "internalType": "address",
          "name": "previousOwner",
          "type": "address"
        },
        {
          "indexed": true,
          "internalType": "address",
          "name": "newOwner",
          "type": "address"
        }
      ],
      "name": "OwnershipTransferred",
      "type": "event"
    },
    {
      "anonymous": false,
      "inputs": [
        {
          "indexed": true,
          "internalType": "address",
          "name": "from",
          "type": "address"
        },
        {
          "indexed": true,
          "internalType": "address",
          "name": "to",
          "type": "address"
        },
        {
          "indexed": true,
          "internalType": "uint256",
          "name": "tokenId",
          "type": "uint256"
        }
      ],
      "name": "Transfer",
      "type": "event"
    },
    {
      "inputs": [
        {
          "internalType": "address",
          "name": "to",
          "type": "address"
        },
        {
          "internalType": "uint256",
          "name": "tokenId",
          "type": "uint256"
        }
      ],
      "name": "approve",
      "outputs": [],
      "stateMutability": "nonpayable",
      "type": "function"
    },
    {
      "inputs": [
        {
          "internalType": "address",
          "name": "owner",
          "type": "address"
        }
      ],
      "name": "balanceOf",
      "outputs": [
        {
          "internalType": "uint256",
          "name": "",
          "type": "uint256"
        }
      ],
      "stateMutability": "view",
      "type": "function"
    },
    {
      "inputs": [
        {
          "internalType": "string",
          "name": "tokenSymbol",
          "type": "string"
        }
      ],
      "name": "deleteFeedableTokenAddress",
      "outputs": [],
      "stateMutability": "nonpayable",
      "type": "function"
    },
    {
      "inputs": [
        {
          "internalType": "uint256",
          "name": "tokenId",
          "type": "uint256"
        },
        {
          "internalType": "address",
          "name": "feedToken",
          "type": "address"
        },
        {
          "internalType": "uint256",
          "name": "amount",
          "type": "uint256"
        }
      ],
      "name": "feed",
      "outputs": [],
      "stateMutability": "nonpayable",
      "type": "function"
    },
    {
      "inputs": [
        {
          "internalType": "string",
          "name": "",
          "type": "string"
        }
      ],
      "name": "feedableTokenAddresses",
      "outputs": [
        {
          "internalType": "address",
          "name": "",
          "type": "address"
        }
      ],
      "stateMutability": "view",
      "type": "function"
    },
    {
      "inputs": [
        {
          "internalType": "uint256",
          "name": "tokenId",
          "type": "uint256"
        }
      ],
      "name": "getApproved",
      "outputs": [
        {
          "internalType": "address",
          "name": "",
          "type": "address"
        }
      ],
      "stateMutability": "view",
      "type": "function"
    },
    {
      "inputs": [
        {
          "internalType": "uint256",
          "name": "tokenId",
          "type": "uint256"
        }
      ],
      "name": "getMonster",
      "outputs": [
        {
          "internalType": "string",
          "name": "svg",
          "type": "string"
        },
        {
          "internalType": "bool",
          "name": "isAlive",
          "type": "bool"
        },
        {
          "internalType": "uint256",
          "name": "life",
          "type": "uint256"
        },
        {
          "internalType": "uint256",
          "name": "age",
          "type": "uint256"
        },
        {
          "internalType": "uint256",
          "name": "timestamp",
          "type": "uint256"
        },
        {
          "internalType": "uint256",
          "name": "totalFeededAmount",
          "type": "uint256"
        }
      ],
      "stateMutability": "view",
      "type": "function"
    },
    {
      "inputs": [
        {
          "internalType": "address",
          "name": "owner",
          "type": "address"
        },
        {
          "internalType": "address",
          "name": "operator",
          "type": "address"
        }
      ],
      "name": "isApprovedForAll",
      "outputs": [
        {
          "internalType": "bool",
          "name": "",
          "type": "bool"
        }
      ],
      "stateMutability": "view",
      "type": "function"
    },
    {
      "inputs": [],
      "name": "mint",
      "outputs": [],
      "stateMutability": "nonpayable",
      "type": "function"
    },
    {
      "inputs": [
        {
          "internalType": "uint256",
          "name": "",
          "type": "uint256"
        }
      ],
      "name": "monsters",
      "outputs": [
        {
          "internalType": "uint256",
          "name": "birthTime",
          "type": "uint256"
        },
        {
          "internalType": "uint256",
          "name": "lastFeedTime",
          "type": "uint256"
        }
      ],
      "stateMutability": "view",
      "type": "function"
    },
    {
      "inputs": [],
      "name": "name",
      "outputs": [
        {
          "internalType": "string",
          "name": "",
          "type": "string"
        }
      ],
      "stateMutability": "view",
      "type": "function"
    },
    {
      "inputs": [],
      "name": "offsetHelper",
      "outputs": [
        {
          "internalType": "address",
          "name": "",
          "type": "address"
        }
      ],
      "stateMutability": "view",
      "type": "function"
    },
    {
      "inputs": [],
      "name": "owner",
      "outputs": [
        {
          "internalType": "address",
          "name": "",
          "type": "address"
        }
      ],
      "stateMutability": "view",
      "type": "function"
    },
    {
      "inputs": [
        {
          "internalType": "uint256",
          "name": "tokenId",
          "type": "uint256"
        }
      ],
      "name": "ownerOf",
      "outputs": [
        {
          "internalType": "address",
          "name": "",
          "type": "address"
        }
      ],
      "stateMutability": "view",
      "type": "function"
    },
    {
      "inputs": [],
      "name": "renounceOwnership",
      "outputs": [],
      "stateMutability": "nonpayable",
      "type": "function"
    },
    {
      "inputs": [
        {
          "internalType": "address",
          "name": "from",
          "type": "address"
        },
        {
          "internalType": "address",
          "name": "to",
          "type": "address"
        },
        {
          "internalType": "uint256",
          "name": "tokenId",
          "type": "uint256"
        }
      ],
      "name": "safeTransferFrom",
      "outputs": [],
      "stateMutability": "nonpayable",
      "type": "function"
    },
    {
      "inputs": [
        {
          "internalType": "address",
          "name": "from",
          "type": "address"
        },
        {
          "internalType": "address",
          "name": "to",
          "type": "address"
        },
        {
          "internalType": "uint256",
          "name": "tokenId",
          "type": "uint256"
        },
        {
          "internalType": "bytes",
          "name": "data",
          "type": "bytes"
        }
      ],
      "name": "safeTransferFrom",
      "outputs": [],
      "stateMutability": "nonpayable",
      "type": "function"
    },
    {
      "inputs": [
        {
          "internalType": "address",
          "name": "operator",
          "type": "address"
        },
        {
          "internalType": "bool",
          "name": "approved",
          "type": "bool"
        }
      ],
      "name": "setApprovalForAll",
      "outputs": [],
      "stateMutability": "nonpayable",
      "type": "function"
    },
    {
      "inputs": [
        {
          "internalType": "string",
          "name": "tokenSymbol",
          "type": "string"
        },
        {
          "internalType": "address",
          "name": "tokenAddress",
          "type": "address"
        }
      ],
      "name": "setFeedableTokenAddress",
      "outputs": [],
      "stateMutability": "nonpayable",
      "type": "function"
    },
    {
      "inputs": [
        {
          "internalType": "address",
          "name": "contractAddress",
          "type": "address"
        }
      ],
      "name": "setOffsetHelper",
      "outputs": [],
      "stateMutability": "nonpayable",
      "type": "function"
    },
    {
      "inputs": [
        {
          "internalType": "bytes4",
          "name": "interfaceId",
          "type": "bytes4"
        }
      ],
      "name": "supportsInterface",
      "outputs": [
        {
          "internalType": "bool",
          "name": "",
          "type": "bool"
        }
      ],
      "stateMutability": "view",
      "type": "function"
    },
    {
      "inputs": [],
      "name": "symbol",
      "outputs": [
        {
          "internalType": "string",
          "name": "",
          "type": "string"
        }
      ],
      "stateMutability": "view",
      "type": "function"
    },
    {
      "inputs": [
        {
          "internalType": "uint256",
          "name": "index",
          "type": "uint256"
        }
      ],
      "name": "tokenByIndex",
      "outputs": [
        {
          "internalType": "uint256",
          "name": "",
          "type": "uint256"
        }
      ],
      "stateMutability": "view",
      "type": "function"
    },
    {
      "inputs": [
        {
          "internalType": "address",
          "name": "owner",
          "type": "address"
        },
        {
          "internalType": "uint256",
          "name": "index",
          "type": "uint256"
        }
      ],
      "name": "tokenOfOwnerByIndex",
      "outputs": [
        {
          "internalType": "uint256",
          "name": "",
          "type": "uint256"
        }
      ],
      "stateMutability": "view",
      "type": "function"
    },
    {
      "inputs": [
        {
          "internalType": "uint256",
          "name": "tokenId",
          "type": "uint256"
        }
      ],
      "name": "tokenURI",
      "outputs": [
        {
          "internalType": "string",
          "name": "",
          "type": "string"
        }
      ],
      "stateMutability": "view",
      "type": "function"
    },
    {
      "inputs": [],
      "name": "totalSupply",
      "outputs": [
        {
          "internalType": "uint256",
          "name": "",
          "type": "uint256"
        }
      ],
      "stateMutability": "view",
      "type": "function"
    },
    {
      "inputs": [
        {
          "internalType": "address",
          "name": "from",
          "type": "address"
        },
        {
          "internalType": "address",
          "name": "to",
          "type": "address"
        },
        {
          "internalType": "uint256",
          "name": "tokenId",
          "type": "uint256"
        }
      ],
      "name": "transferFrom",
      "outputs": [],
      "stateMutability": "nonpayable",
      "type": "function"
    },
    {
      "inputs": [
        {
          "internalType": "address",
          "name": "newOwner",
          "type": "address"
        }
      ],
      "name": "transferOwnership",
      "outputs": [],
      "stateMutability": "nonpayable",
      "type": "function"
    }
  ],
  "bytecode": "0x60806040523480156200001157600080fd5b506040518060400160405280600e81526020016d21b0b93137b71026b7b739ba32b960911b81525060405180604001604052806002815260200161434d60f01b8152506200006e620000686200011960201b60201c565b6200011d565b60016200007c838262000212565b5060026200008b828262000212565b5050600f80546001600160a01b0319167330dc279166dcfb69f52c91d6a3380dca75d0fca71790555060405173f2438a14f668b1bba53408346288f3d7c71c10a190600d90620000e490621090d560ea1b815260030190565b90815260405190819003602001902080546001600160a01b03929092166001600160a01b0319909216919091179055620002de565b3390565b600080546001600160a01b038381166001600160a01b0319831681178455604051919092169283917f8be0079c531659141344cd1fd0a4f28419497f9722a3daafe3b4186f6b6457e09190a35050565b634e487b7160e01b600052604160045260246000fd5b600181811c908216806200019857607f821691505b602082108103620001b957634e487b7160e01b600052602260045260246000fd5b50919050565b601f8211156200020d57600081815260208120601f850160051c81016020861015620001e85750805b601f850160051c820191505b818110156200020957828155600101620001f4565b5050505b505050565b81516001600160401b038111156200022e576200022e6200016d565b62000246816200023f845462000183565b84620001bf565b602080601f8311600181146200027e5760008415620002655750858301515b600019600386901b1c1916600185901b17855562000209565b600085815260208120601f198616915b82811015620002af578886015182559484019460019091019084016200028e565b5085821015620002ce5787850151600019600388901b60f8161c191681555b5050505050600190811b01905550565b61296f80620002ee6000396000f3fe608060405234801561001057600080fd5b50600436106101c45760003560e01c8063715018a6116100f9578063b88d4fde11610097578063d871963b11610071578063d871963b146103d9578063e985e9c51461040d578063f2fde38b14610449578063f85a652f1461045c57600080fd5b8063b88d4fde14610377578063c0576b731461038a578063c87b56dd146103c657600080fd5b8063977815a5116100d3578063977815a51461032b578063a1177a211461033e578063a22cb46514610351578063a96a30411461036457600080fd5b8063715018a61461030a5780638da5cb5b1461031257806395d89b411461032357600080fd5b80632f745c59116101665780635a6514f9116101405780635a6514f9146102ac57806362fb6fe1146102bf5780636352211e146102e457806370a08231146102f757600080fd5b80632f745c591461027357806342842e0e146102865780634f6ccce71461029957600080fd5b8063095ea7b3116101a2578063095ea7b3146102315780631249c58b1461024657806318160ddd1461024e57806323b872dd1461026057600080fd5b806301ffc9a7146101c957806306fdde03146101f1578063081812fc14610206575b600080fd5b6101dc6101d7366004611da2565b61046f565b60405190151581526020015b60405180910390f35b6101f961049a565b6040516101e89190611e0f565b610219610214366004611e22565b61052c565b6040516001600160a01b0390911681526020016101e8565b61024461023f366004611e50565b610553565b005b61024461066d565b6009545b6040519081526020016101e8565b61024461026e366004611e7c565b6106fd565b610252610281366004611e50565b61072e565b610244610294366004611e7c565b6107c4565b6102526102a7366004611e22565b6107df565b6102446102ba366004611f7c565b610872565b6102d26102cd366004611e22565b6108aa565b6040516101e896959493929190611fb1565b6102196102f2366004611e22565b610933565b610252610305366004611fed565b610993565b610244610a19565b6000546001600160a01b0316610219565b6101f9610a2d565b610244610339366004611fed565b610a3c565b600f54610219906001600160a01b031681565b61024461035f366004612018565b610a66565b610244610372366004612051565b610a71565b610244610385366004612078565b610cd8565b6103b1610398366004611e22565b600e602052600090815260409020805460019091015482565b604080519283526020830191909152016101e8565b6101f96103d4366004611e22565b610d0a565b6102196103e7366004611f7c565b8051602081830181018051600d825292820191909301209152546001600160a01b031681565b6101dc61041b3660046120f8565b6001600160a01b03918216600090815260066020908152604080832093909416825291909152205460ff1690565b610244610457366004611fed565b610ded565b61024461046a366004612126565b610e66565b60006001600160e01b0319821663780e9d6360e01b1480610494575061049482610eb2565b92915050565b6060600180546104a99061216d565b80601f01602080910402602001604051908101604052809291908181526020018280546104d59061216d565b80156105225780601f106104f757610100808354040283529160200191610522565b820191906000526020600020905b81548152906001019060200180831161050557829003601f168201915b5050505050905090565b600061053782610f02565b506000908152600560205260409020546001600160a01b031690565b600061055e82610933565b9050806001600160a01b0316836001600160a01b0316036105d05760405162461bcd60e51b815260206004820152602160248201527f4552433732313a20617070726f76616c20746f2063757272656e74206f776e656044820152603960f91b60648201526084015b60405180910390fd5b336001600160a01b03821614806105ec57506105ec813361041b565b61065e5760405162461bcd60e51b815260206004820152603e60248201527f4552433732313a20617070726f76652063616c6c6572206973206e6f7420746f60448201527f6b656e206f776e6572206e6f7220617070726f76656420666f7220616c6c000060648201526084016105c7565b6106688383610f52565b505050565b600a61067833610993565b106106b45760405162461bcd60e51b815260206004820152600c60248201526b1b9bc81b5bdc99481b5a5b9d60a21b60448201526064016105c7565b60006106bf600b5490565b90506106cf600b80546001019055565b6000818152600e602052604090204280825560018201556106f03383610fc0565b6106f982610fda565b5050565b6107073382611033565b6107235760405162461bcd60e51b81526004016105c7906121a7565b6106688383836110b2565b600061073983610993565b821061079b5760405162461bcd60e51b815260206004820152602b60248201527f455243373231456e756d657261626c653a206f776e657220696e646578206f7560448201526a74206f6620626f756e647360a81b60648201526084016105c7565b506001600160a01b03919091166000908152600760209081526040808320938352929052205490565b61066883838360405180602001604052806000815250610cd8565b60006107ea60095490565b821061084d5760405162461bcd60e51b815260206004820152602c60248201527f455243373231456e756d657261626c653a20676c6f62616c20696e646578206f60448201526b7574206f6620626f756e647360a01b60648201526084016105c7565b60098281548110610860576108606121f5565b90600052602060002001549050919050565b61087a611259565b600d8160405161088a9190612227565b90815260405190819003602001902080546001600160a01b031916905550565b606060008060008060006108bd876112b3565b6108d95760405162461bcd60e51b81526004016105c790612243565b6000878152600e602052604090206108f0886112d0565b96506108fb81611334565b955061090681611347565b94506109118161138c565b6000988952600c60205260409098205496989597949694954295945092505050565b6000818152600360205260408120546001600160a01b0316806104945760405162461bcd60e51b8152602060048201526018602482015277115490cdcc8c4e881a5b9d985b1a59081d1bdad95b88125160421b60448201526064016105c7565b60006001600160a01b0382166109fd5760405162461bcd60e51b815260206004820152602960248201527f4552433732313a2061646472657373207a65726f206973206e6f7420612076616044820152683634b21037bbb732b960b91b60648201526084016105c7565b506001600160a01b031660009081526004602052604090205490565b610a21611259565b610a2b60006113e1565b565b6060600280546104a99061216d565b610a44611259565b600f80546001600160a01b0319166001600160a01b0392909216919091179055565b6106f9338383611431565b610a7a836112b3565b610a965760405162461bcd60e51b81526004016105c790612243565b610a9f826114ff565b610ae05760405162461bcd60e51b8152602060048201526012602482015271546f6b656e206e6f74206665656461626c6560701b60448201526064016105c7565b6000838152600e60205260409020610af781611334565b610b325760405162461bcd60e51b815260206004820152600c60248201526b185b1c9958591e481919585960a21b60448201526064016105c7565b4260018201556040516323b872dd60e01b8152336004820152306024820152604481018390526001600160a01b038416906323b872dd906064016020604051808303816000875af1158015610b8b573d6000803e3d6000fd5b505050506040513d601f19601f82011682018060405250810190610baf9190612265565b50600f5460405163095ea7b360e01b81526001600160a01b039182166004820152602481018490529084169063095ea7b3906044016020604051808303816000875af1158015610c03573d6000803e3d6000fd5b505050506040513d601f19601f82011682018060405250810190610c279190612265565b50600f5460405163612e2feb60e01b81526001600160a01b038581166004830152602482018590529091169063612e2feb906044016000604051808303816000875af1158015610c7b573d6000803e3d6000fd5b505050506040513d6000823e601f3d908101601f19168201604052610ca39190810190612311565b50506000848152600c602052604081208054849290610cc39084906123ec565b90915550610cd2905084610fda565b50505050565b610ce23383611033565b610cfe5760405162461bcd60e51b81526004016105c7906121a7565b610cd284848484611589565b6060610d15826112b3565b610d795760405162461bcd60e51b815260206004820152602f60248201527f4552433732314d657461646174613a2055524920717565727920666f72206e6f60448201526e3732bc34b9ba32b73a103a37b5b2b760891b60648201526084016105c7565b6000610d84836115bc565b90506000610d91846115ff565b610d9a83611700565b604051602001610dab9291906123ff565b6040516020818303038152906040529050610dc581611700565b604051602001610dd5919061259f565b60405160208183030381529060405292505050919050565b610df5611259565b6001600160a01b038116610e5a5760405162461bcd60e51b815260206004820152602660248201527f4f776e61626c653a206e6577206f776e657220697320746865207a65726f206160448201526564647265737360d01b60648201526084016105c7565b610e63816113e1565b50565b610e6e611259565b80600d83604051610e7f9190612227565b90815260405190819003602001902080546001600160a01b03929092166001600160a01b03199092169190911790555050565b60006001600160e01b031982166380ac58cd60e01b1480610ee357506001600160e01b03198216635b5e139f60e01b145b8061049457506301ffc9a760e01b6001600160e01b0319831614610494565b610f0b816112b3565b610e635760405162461bcd60e51b8152602060048201526018602482015277115490cdcc8c4e881a5b9d985b1a59081d1bdad95b88125160421b60448201526064016105c7565b600081815260056020526040902080546001600160a01b0319166001600160a01b0384169081179091558190610f8782610933565b6001600160a01b03167f8c5be1e5ebec7d5bd14f71427d1e84f3dd0314c0f7b2291e5b200ac8c7c3b92560405160405180910390a45050565b6106f9828260405180602001604052806000815250611853565b60606000610fe7836108aa565b604051959750955033947f67c1e001d4c29be52cb202b8c3b1214070d55c48a5847a855aacbe14dafdcafa9450611026935088925087915086906125e4565b60405180910390a2505050565b60008061103f83610933565b9050806001600160a01b0316846001600160a01b0316148061108657506001600160a01b0380821660009081526006602090815260408083209388168352929052205460ff165b806110aa5750836001600160a01b031661109f8461052c565b6001600160a01b0316145b949350505050565b826001600160a01b03166110c582610933565b6001600160a01b0316146111295760405162461bcd60e51b815260206004820152602560248201527f4552433732313a207472616e736665722066726f6d20696e636f72726563742060448201526437bbb732b960d91b60648201526084016105c7565b6001600160a01b03821661118b5760405162461bcd60e51b8152602060048201526024808201527f4552433732313a207472616e7366657220746f20746865207a65726f206164646044820152637265737360e01b60648201526084016105c7565b611196838383611886565b6111a1600082610f52565b6001600160a01b03831660009081526004602052604081208054600192906111ca90849061260d565b90915550506001600160a01b03821660009081526004602052604081208054600192906111f89084906123ec565b909155505060008181526003602052604080822080546001600160a01b0319166001600160a01b0386811691821790925591518493918716917fddf252ad1be2c89b69c2b068fc378daa952ba7f163c4a11628f55a4df523b3ef91a4505050565b6000546001600160a01b03163314610a2b5760405162461bcd60e51b815260206004820181905260248201527f4f776e61626c653a2063616c6c6572206973206e6f7420746865206f776e657260448201526064016105c7565b6000908152600360205260409020546001600160a01b0316151590565b60606112db826112b3565b6112f75760405162461bcd60e51b81526004016105c790612243565b6000611302836115bc565b905061130d81611700565b60405160200161131d9190612620565b604051602081830303815290604052915050919050565b60008061134083611347565b1192915050565b600080602483600101544261135c919061260d565b611366919061267b565b61137190606461268f565b905060008113156113825780611385565b60005b9392505050565b600061139782611334565b156113b55781546024906113ab904261260d565b610494919061267b565b60646024836000015484600101546113cd919061260d565b6113d7919061267b565b61049491906123ec565b600080546001600160a01b038381166001600160a01b0319831681178455604051919092169283917f8be0079c531659141344cd1fd0a4f28419497f9722a3daafe3b4186f6b6457e09190a35050565b816001600160a01b0316836001600160a01b0316036114925760405162461bcd60e51b815260206004820152601960248201527f4552433732313a20617070726f766520746f2063616c6c65720000000000000060448201526064016105c7565b6001600160a01b03838116600081815260066020908152604080832094871680845294825291829020805460ff191686151590811790915591519182527f17307eab39ab6107e8899845ad3d59bd9653f200f220920489ca2b5937696c31910160405180910390a3505050565b6000600d60405161151990621090d560ea1b815260030190565b908152604051908190036020019020546001600160a01b039081169083160361154457506001919050565b604051621390d560ea1b8152600d90600301908152604051908190036020019020546001600160a01b039081169083160361158157506001919050565b506000919050565b6115948484846110b2565b6115a08484848461193e565b610cd25760405162461bcd60e51b81526004016105c7906126b6565b6000818152600e602052604090206060906115d681611334565b6115e7576115e2611a3f565b611385565b6000838152600c602052604090205461138590611a64565b6060816000036116265750506040805180820190915260018152600360fc1b602082015290565b8160005b8115611650578061163a81612708565b91506116499050600a8361267b565b915061162a565b60008167ffffffffffffffff81111561166b5761166b611ebd565b6040519080825280601f01601f191660200182016040528015611695576020820181803683370190505b5090505b84156110aa576116aa60018361260d565b91506116b7600a86612721565b6116c29060306123ec565b60f81b8183815181106116d7576116d76121f5565b60200101906001600160f81b031916908160001a9053506116f9600a8661267b565b9450611699565b6060815160000361171f57505060408051602081019091526000815290565b60006040518060600160405280604081526020016128fa604091399050600060038451600261174e91906123ec565b611758919061267b565b611763906004612735565b67ffffffffffffffff81111561177b5761177b611ebd565b6040519080825280601f01601f1916602001820160405280156117a5576020820181803683370190505b509050600182016020820185865187015b80821015611811576003820191508151603f8160121c168501518453600184019350603f81600c1c168501518453600184019350603f8160061c168501518453600184019350603f81168501518453506001830192506117b6565b505060038651066001811461182d576002811461184057611848565b603d6001830353603d6002830353611848565b603d60018303535b509195945050505050565b61185d8383611abd565b61186a600084848461193e565b6106685760405162461bcd60e51b81526004016105c7906126b6565b6001600160a01b0383166118e1576118dc81600980546000838152600a60205260408120829055600182018355919091527f6e1540171b6c0c960b71a7020d9f60077f6af931a8bbf590da0223dacf75c7af0155565b611904565b816001600160a01b0316836001600160a01b031614611904576119048382611bfc565b6001600160a01b03821661191b5761066881611c99565b826001600160a01b0316826001600160a01b031614610668576106688282611d48565b60006001600160a01b0384163b15611a3457604051630a85bd0160e11b81526001600160a01b0385169063150b7a029061198290339089908890889060040161274c565b6020604051808303816000875af19250505080156119bd575060408051601f3d908101601f191682019092526119ba91810190612789565b60015b611a1a573d8080156119eb576040519150601f19603f3d011682016040523d82523d6000602084013e6119f0565b606091505b508051600003611a125760405162461bcd60e51b81526004016105c7906126b6565b805181602001fd5b6001600160e01b031916630a85bd0160e11b1490506110aa565b506001949350505050565b6060604051602001611a50906127f5565b604051602081830303815290604052905090565b6060611a97670de0b6b3a7640000611a7d846064612735565b611a87919061267b565b611a9290600a6123ec565b6115ff565b604051602001611aa79190612859565b6040516020818303038152906040529050919050565b6001600160a01b038216611b135760405162461bcd60e51b815260206004820181905260248201527f4552433732313a206d696e7420746f20746865207a65726f206164647265737360448201526064016105c7565b611b1c816112b3565b15611b695760405162461bcd60e51b815260206004820152601c60248201527f4552433732313a20746f6b656e20616c7265616479206d696e7465640000000060448201526064016105c7565b611b7560008383611886565b6001600160a01b0382166000908152600460205260408120805460019290611b9e9084906123ec565b909155505060008181526003602052604080822080546001600160a01b0319166001600160a01b03861690811790915590518392907fddf252ad1be2c89b69c2b068fc378daa952ba7f163c4a11628f55a4df523b3ef908290a45050565b60006001611c0984610993565b611c13919061260d565b600083815260086020526040902054909150808214611c66576001600160a01b03841660009081526007602090815260408083208584528252808320548484528184208190558352600890915290208190555b5060009182526008602090815260408084208490556001600160a01b039094168352600781528383209183525290812055565b600954600090611cab9060019061260d565b6000838152600a602052604081205460098054939450909284908110611cd357611cd36121f5565b906000526020600020015490508060098381548110611cf457611cf46121f5565b6000918252602080832090910192909255828152600a90915260408082208490558582528120556009805480611d2c57611d2c6128e3565b6001900381819060005260206000200160009055905550505050565b6000611d5383610993565b6001600160a01b039093166000908152600760209081526040808320868452825280832085905593825260089052919091209190915550565b6001600160e01b031981168114610e6357600080fd5b600060208284031215611db457600080fd5b813561138581611d8c565b60005b83811015611dda578181015183820152602001611dc2565b50506000910152565b60008151808452611dfb816020860160208601611dbf565b601f01601f19169290920160200192915050565b6020815260006113856020830184611de3565b600060208284031215611e3457600080fd5b5035919050565b6001600160a01b0381168114610e6357600080fd5b60008060408385031215611e6357600080fd5b8235611e6e81611e3b565b946020939093013593505050565b600080600060608486031215611e9157600080fd5b8335611e9c81611e3b565b92506020840135611eac81611e3b565b929592945050506040919091013590565b634e487b7160e01b600052604160045260246000fd5b604051601f8201601f1916810167ffffffffffffffff81118282101715611efc57611efc611ebd565b604052919050565b600067ffffffffffffffff831115611f1e57611f1e611ebd565b611f31601f8401601f1916602001611ed3565b9050828152838383011115611f4557600080fd5b828260208301376000602084830101529392505050565b600082601f830112611f6d57600080fd5b61138583833560208501611f04565b600060208284031215611f8e57600080fd5b813567ffffffffffffffff811115611fa557600080fd5b6110aa84828501611f5c565b60c081526000611fc460c0830189611de3565b96151560208301525060408101949094526060840192909252608083015260a090910152919050565b600060208284031215611fff57600080fd5b813561138581611e3b565b8015158114610e6357600080fd5b6000806040838503121561202b57600080fd5b823561203681611e3b565b915060208301356120468161200a565b809150509250929050565b60008060006060848603121561206657600080fd5b833592506020840135611eac81611e3b565b6000806000806080858703121561208e57600080fd5b843561209981611e3b565b935060208501356120a981611e3b565b925060408501359150606085013567ffffffffffffffff8111156120cc57600080fd5b8501601f810187136120dd57600080fd5b6120ec87823560208401611f04565b91505092959194509250565b6000806040838503121561210b57600080fd5b823561211681611e3b565b9150602083013561204681611e3b565b6000806040838503121561213957600080fd5b823567ffffffffffffffff81111561215057600080fd5b61215c85828601611f5c565b925050602083013561204681611e3b565b600181811c9082168061218157607f821691505b6020821081036121a157634e487b7160e01b600052602260045260246000fd5b50919050565b6020808252602e908201527f4552433732313a2063616c6c6572206973206e6f7420746f6b656e206f776e6560408201526d1c881b9bdc88185c1c1c9bdd995960921b606082015260800190565b634e487b7160e01b600052603260045260246000fd5b6000815161221d818560208601611dbf565b9290920192915050565b60008251612239818460208701611dbf565b9190910192915050565b6020808252600890820152673737903a37b5b2b760c11b604082015260600190565b60006020828403121561227757600080fd5b81516113858161200a565b600067ffffffffffffffff82111561229c5761229c611ebd565b5060051b60200190565b600082601f8301126122b757600080fd5b815160206122cc6122c783612282565b611ed3565b82815260059290921b840181019181810190868411156122eb57600080fd5b8286015b8481101561230657805183529183019183016122ef565b509695505050505050565b6000806040838503121561232457600080fd5b825167ffffffffffffffff8082111561233c57600080fd5b818501915085601f83011261235057600080fd5b815160206123606122c783612282565b82815260059290921b8401810191818101908984111561237f57600080fd5b948201945b838610156123a657855161239781611e3b565b82529482019490820190612384565b918801519196509093505050808211156123bf57600080fd5b506123cc858286016122a6565b9150509250929050565b634e487b7160e01b600052601160045260246000fd5b80820180821115610494576104946123d6565b7f7b226e616d65223a2022436172626f6e204d6f6e73746572202300000000000081526000835161243781601a850160208801611dbf565b61088b60f21b601a918401918201527f226465736372697074696f6e223a20225468697320697320612066756c6c206f601c8201527f6e2d636861696e206578706572696d656e74616c204e46542e20546865206d6f603c8201527f6e7374657220796f75206861766520637265617465642077696c6c206f6e6c79605c8201527f206c6173742031303020686f75727320696620796f7520646f206e6f74206665607c8201527f65642069742e20506c656173652074616b652063617265206f6620697420666f609c8201527f722061206c6f6e672074696d652e20637265617465642062792073686f676f7360bc8201526f1d480a101cda1bd9dbcc0d4c8d4a488b60821b60dc8201527f22696d616765223a2022646174613a696d6167652f7376672b786d6c3b62617360ec82015263194d8d0b60e21b61010c82015261259661258861011083018661220b565b61227d60f01b815260020190565b95945050505050565b7f646174613a6170706c69636174696f6e2f6a736f6e3b6261736536342c0000008152600082516125d781601d850160208701611dbf565b91909101601d0192915050565b8381526060602082015260006125fd6060830185611de3565b9050826040830152949350505050565b81810381811115610494576104946123d6565b7f646174613a696d6167652f7376672b786d6c3b6261736536342c00000000000081526000825161265881601a850160208701611dbf565b91909101601a0192915050565b634e487b7160e01b600052601260045260246000fd5b60008261268a5761268a612665565b500490565b81810360008312801583831316838312821617156126af576126af6123d6565b5092915050565b60208082526032908201527f4552433732313a207472616e7366657220746f206e6f6e20455243373231526560408201527131b2b4bb32b91034b6b83632b6b2b73a32b960711b606082015260800190565b60006001820161271a5761271a6123d6565b5060010190565b60008261273057612730612665565b500690565b8082028115828204841417610494576104946123d6565b6001600160a01b038581168252841660208201526040810183905260806060820181905260009061277f90830184611de3565b9695505050505050565b60006020828403121561279b57600080fd5b815161138581611d8c565b7f3c7376672076696577426f783d22302030203130303020313030302220786d6c81527f6e733d22687474703a2f2f7777772e77332e6f72672f323030302f737667223e602082015260400190565b6000612800826127a6565b7f3c636972636c65207374796c653d2266696c6c3a20726564222063783d22353081527418111031bc9e911a98181110391e9118981110179f60591b6020820152651e17b9bb339f60d11b6035820152603b0192915050565b6000612864826127a6565b7f3c636972636c65207374796c653d2266696c6c3a206c696d65677265656e222081527431bc1e911a9818111031bc9e911a98181110391e9160591b602082015283516128b8816035840160208801611dbf565b631110179f60e11b60359290910191820152651e17b9bb339f60d11b6039820152603f019392505050565b634e487b7160e01b600052603160045260246000fdfe4142434445464748494a4b4c4d4e4f505152535455565758595a6162636465666768696a6b6c6d6e6f707172737475767778797a303132333435363738392b2fa26469706673582212202e2e012cce948c6e1cfea932a185408793923f1e27906cd49f4d8d3d325aafd464736f6c63430008110033",
  "linkReferences": {},
  "deployedLinkReferences": {}
}